:1000000012C01FC01EC01EC01CC01BC01AC019C019
:1000100018C017C099C19AC19BC19CC19DC19EC106
:100020009FC1A0C1A1C111241FBECFE9CDBF20E057
:10003000A0E6B0E001C01D92A236B207E1F769D197
:100040009FC1DECF1F920F920FB60F9211242F93F4
:100050008F939F93809160009091610086509F4F95
:10006000C09A0197F0F7C0989F918F912F910F90B0
:100070000FBE0F901F9018956115710519F050E093
:1000800040E025C0909361008093600080E0089577
:100090008217930738F4215031093093610020937F
:1000A000600006C02F5F3F4F3093610020936000D7
:1000B000252F342FE9EFF0E03197F1F700C0000071
:1000C0002F5F3F4F26173707A9F7B49B1AC020911F
:1000D00060003091610028173907D1F68436910508
:1000E00091F481ED97E009C0E9EFF0E03197F1F785
:1000F00000C000000197009741F0B499F5CF80E06F
:10010000089581E0089580E0089581E0089560E019
:1001100070E084E690E0B0DF089562E070E084E68D
:1001200090E0AADF089560E070E08AEF90E0A4DF3D
:100130002FE78AE196E0215080409040E1F700C02F
:10014000000061E070E084E690E096DF089560E0F2
:1001500070E08AEF90E090DF8FE493EC0197F1F785
:1001600000C0000060E070E08AE491E085DF8FE489
:1001700093EC0197F1F700C0000060E070E082EDC1
:1001800090E07ADF8FE493EC0197F1F700C0000074
:1001900060E070E08AE491E06FDF9FE926E881E0AB
:1001A000915020408040E1F700C0000061E070E025
:1001B00084E690E061DF08956AE070E08AEF90E005
:1001C0005BDF8FE493EC0197F1F700C0000061E082
:1001D00070E084E690E050DF08950F931F93CF9373
:1001E000DF9360E070E08AEF90E046DF8FE493EC0D
:1001F0000197F1F700C00000CAEFD0E004EF11E072
:10020000C0FF05C060E070E0CE0136DF06C060E0F0
:1002100070E0C8018C1B9D0B2FDF83ED90E30197ED
:10022000F1F700C000002197C13ED10549F761E018
:1002300070E084E690E020DFDF91CF911F910F9175
:10024000089560E070E080E991E016DF2FE78AE131
:1002500096E0215080409040E1F700C000006AE045
:1002600070E08CEB92E008DF2FE986E891E0215006
:1002700080409040E1F700C0000061E070E084E65B
:1002800090E0FADE089560E070E080E991E0F4DE4D
:100290002FE78AE196E0215080409040E1F700C0CE
:1002A000000060E070E084EF91E0E6DE2FE986E890
:1002B00091E0215080409040E1F700C0000065E0EF
:1002C00070E080E991E0D8DE2FE986E891E02150E6
:1002D00080409040E1F700C0000061E070E084E6FB
:1002E00090E0CADE089560E070E088EC90E0C4DE43
:1002F0008FE493EC0197F1F700C000006FE070E02D
:100300008CE291E0B9DE61E070E084E690E0B4DE7A
:100310000895BB9AB89AB99A83B7836083BF89B7A7
:10032000826089BF78941092610010926000D0E0E2
:10033000B49B1FC0C39A8C2F90E089309105B0F414
:10034000FC01E65FFF4F0994E2DE11C0E6DE0FC05C
:10035000EADE0DC0FCDE0BC02FDF09C03EDF07C0A8
:1003600070DF05C090DF03C0BEDF01C0CD2FCF5FBF
:10037000DFCFC39860E070E08CEB92E07DDED8CFF9
:04038000F894FFCF1F
:00000001FF
